{
  "address": "0x06cf9eEC832f65cfbfe88AE5595beaF97bf011a7",
  "abi": [
    {
      "inputs": [
        {
          "internalType": "contract IDIAOracleV2",
          "name": "oracleArg",
          "type": "address"
        },
        {
          "internalType": "string",
          "name": "oracleKeyArg",
          "type": "string"
        }
      ],
      "stateMutability": "nonpayable",
      "type": "constructor"
    },
    {
      "inputs": [],
      "name": "QUOTE_ASSET",
      "outputs": [
        {
          "internalType": "string",
          "name": "",
          "type": "string"
        }
      ],
      "stateMutability": "view",
      "type": "function"
    },
    {
      "inputs": [],
      "name": "decimals",
      "outputs": [
        {
          "internalType": "uint8",
          "name": "",
          "type": "uint8"
        }
      ],
      "stateMutability": "pure",
      "type": "function"
    },
    {
      "inputs": [],
      "name": "getPrice",
      "outputs": [
        {
          "internalType": "uint256",
          "name": "",
          "type": "uint256"
        }
      ],
      "stateMutability": "view",
      "type": "function"
    },
    {
      "inputs": [],
      "name": "oracle",
      "outputs": [
        {
          "internalType": "contract IDIAOracleV2",
          "name": "",
          "type": "address"
        }
      ],
      "stateMutability": "view",
      "type": "function"
    },
    {
      "inputs": [],
      "name": "oracleKey",
      "outputs": [
        {
          "internalType": "string",
          "name": "",
          "type": "string"
        }
      ],
      "stateMutability": "view",
      "type": "function"
    }
  ],
  "transactionHash": "0xa11830760348b6ba5549e6380e031802aa57842822189fb5fed5d835a32e770f",
  "args": [
    "0x1232AcD632Dd75f874E357c77295Da3f5Cd7733E",
    "KSM/USD"
  ],
  "numDeployments": 1,
  "solcInputHash": "b60c928cad25a62b19ba273872debabe",
  "bytecode": "0x60a060405234801561001057600080fd5b5060405161072c38038061072c83398101604081905261002f91610144565b61004b826001600160a01b031661009d60201b6101b21760201c565b6100705760405162461bcd60e51b81526004016100679061021c565b60405180910390fd5b6001600160601b0319606083901b1660805280516100959060009060208401906100a3565b505050610253565b3b151590565b828054600181600116156101000203166002900490600052602060002090601f0160209004810192826100d9576000855561011f565b82601f106100f257805160ff191683800117855561011f565b8280016001018555821561011f579182015b8281111561011f578251825591602001919060010190610104565b5061012b92915061012f565b5090565b5b8082111561012b5760008155600101610130565b60008060408385031215610156578182fd5b82516001600160a01b038116811461016c578283fd5b602084810151919350906001600160401b038082111561018a578384fd5b818601915086601f83011261019d578384fd5b8151818111156101a957fe5b604051601f8201601f19168101850183811182821017156101c657fe5b60405281815283820185018910156101dc578586fd5b8592505b818310156101fd57838301850151818401860152918401916101e0565b8183111561020d57858583830101525b80955050505050509250929050565b6020808252601f908201527f4450465f433a207265662061646472657373206e6f7420636f6e747261637400604082015260600190565b60805160601c6104b86102746000398060c852806101c452506104b86000f3fe608060405234801561001057600080fd5b50600436106100575760003560e01c8063313ce5671461005c5780637dc0d1d01461007a57806398d5fdca1461008f5780639d1f048e146100a4578063f06a1e13146100b9575b600080fd5b6100646100c1565b6040516100719190610468565b60405180910390f35b6100826100c6565b604051610071919061030f565b6100976100ea565b604051610071919061045f565b6100ac610105565b6040516100719190610323565b6100ac610193565b600890565b7f000000000000000000000000000000000000000000000000000000000000000081565b6000806100f56101bc565b506001600160801b031691505090565b6000805460408051602060026001851615610100026000190190941693909304601f8101849004840282018401909252818152929183018282801561018b5780601f106101605761010080835404028352916020019161018b565b820191906000526020600020905b81548152906001019060200180831161016e57829003601f168201915b505050505081565b604051806040016040528060038152602001621554d160ea1b81525081565b803b15155b919050565b6000806000807f00000000000000000000000000000000000000000000000000000000000000006001600160a01b031663960384a060006040518263ffffffff1660e01b815260040161020f9190610376565b604080518083038186803b15801561022657600080fd5b505afa15801561023a573d6000803e3d6000fd5b505050506040513d601f19601f8201168201806040525081019061025e91906102dd565b915091506000816001600160801b0316116102945760405162461bcd60e51b815260040161028b90610430565b60405180910390fd5b6000826001600160801b0316116102bd5760405162461bcd60e51b815260040161028b90610400565b90925090509091565b80516001600160801b03811681146101b757600080fd5b600080604083850312156102ef578182fd5b6102f8836102c6565b9150610306602084016102c6565b90509250929050565b6001600160a01b0391909116815260200190565b6000602080835283518082850152825b8181101561034f57858101830151858201604001528201610333565b818111156103605783604083870101525b50601f01601f1916929092016040019392505050565b6000602080830181845282855460018082166000811461039d57600181146103bb576103f3565b60028304607f16855260ff19831660408901526060880193506103f3565b600283048086526103cb8a610476565b885b828110156103e95781548b8201604001529084019088016103cd565b8a01604001955050505b5091979650505050505050565b6020808252601690820152754450465f474f443a20696e76616c696420707269636560501b604082015260600190565b6020808252601590820152744450465f474f443a2074696d65206973207a65726f60581b604082015260600190565b90815260200190565b60ff91909116815260200190565b6000908152602090209056fea2646970667358221220aa3f48d4d9668532e88fe87d5a12faf1e34fbe7cd13f7192d040b4e647ce1ddf64736f6c63430007060033",
  "devdoc": {
    "kind": "dev",
    "methods": {
      "getPrice()": {
        "details": "Returns the index price of the token."
      }
    },
    "version": 1
  },
  "userdoc": {
    "kind": "user",
    "methods": {},
    "version": 1
  },
  "storageLayout": {
    "storage": [
      {
        "astId": 7897,
        "contract": "contracts/DiaPriceFeed.sol:DiaPriceFeed",
        "label": "oracleKey",
        "offset": 0,
        "slot": "0",
        "type": "t_string_storage"
      }
    ],
    "types": {
      "t_string_storage": {
        "encoding": "bytes",
        "label": "string",
        "numberOfBytes": "32"
      }
    }
  }
}