{
  "address": "0xBB82625d4b46ae1b4dbF519A56d4A19e2F70d63b",
  "abi": [
    {
      "inputs": [
        {
          "internalType": "contract AggregatorV3Interface",
          "name": "aggregatorArg",
          "type": "address"
        }
      ],
      "stateMutability": "nonpayable",
      "type": "constructor"
    },
    {
      "inputs": [],
      "name": "aggregator",
      "outputs": [
        {
          "internalType": "contract AggregatorV3Interface",
          "name": "",
          "type": "address"
        }
      ],
      "stateMutability": "view",
      "type": "function"
    },
    {
      "inputs": [],
      "name": "decimals",
      "outputs": [
        {
          "internalType": "uint8",
          "name": "",
          "type": "uint8"
        }
      ],
      "stateMutability": "view",
      "type": "function"
    },
    {
      "inputs": [],
      "name": "getPrice",
      "outputs": [
        {
          "internalType": "uint256",
          "name": "",
          "type": "uint256"
        }
      ],
      "stateMutability": "view",
      "type": "function"
    }
  ],
  "transactionHash": "0x402504d144afc69c75e57f085b886ce0f0d7c2e4699c7dd5dd673c6f8a443dc3",
  "args": [
    "0x8A753747A1Fa494EC906cE90E9f37563A8AF630e"
  ],
  "numDeployments": 2,
  "solcInputHash": "b60c928cad25a62b19ba273872debabe",
  "bytecode": "0x60a060405234801561001057600080fd5b506040516105583803806105588339818101604052602081101561003357600080fd5b50516100526001600160a01b0382166100b8602090811b61016517901c565b6100a3576040805162461bcd60e51b815260206004820152601f60248201527f4350465f433a206167672061646472657373206e6f7420636f6e747261637400604482015290519081900360640190fd5b60601b6001600160601b0319166080526100be565b3b151590565b60805160601c61046b6100ed6000398060a4528060ca528061017652806102b1528061037a525061046b6000f3fe608060405234801561001057600080fd5b50600436106100415760003560e01c8063245a7bfc14610046578063313ce5671461006a57806398d5fdca14610088575b600080fd5b61004e6100a2565b604080516001600160a01b039092168252519081900360200190f35b6100726100c6565b6040805160ff9092168252519081900360200190f35b610090610152565b60408051918252519081900360200190f35b7f000000000000000000000000000000000000000000000000000000000000000081565b60007f00000000000000000000000000000000000000000000000000000000000000006001600160a01b031663313ce5676040518163ffffffff1660e01b815260040160206040518083038186803b15801561012157600080fd5b505afa158015610135573d6000803e3d6000fd5b505050506040513d602081101561014b57600080fd5b5051905090565b60008061015d61016b565b509250505090565b3b151590565b6000806000806000807f00000000000000000000000000000000000000000000000000000000000000006001600160a01b031663feaf968c6040518163ffffffff1660e01b815260040160a06040518083038186803b1580156101cd57600080fd5b505afa1580156101e1573d6000803e3d6000fd5b505050506040513d60a08110156101f757600080fd5b50805160208201516060909201519196509350859250905060008212156102365761022183610242565b61022d600184036102a6565b90965090935090505b91945090915050909192565b60008169ffffffffffffffffffff16116102a3576040805162461bcd60e51b815260206004820152601a60248201527f4350465f5245483a206e6f20656e6f75676820686973746f7279000000000000604482015290519081900360640190fd5b50565b6000806000806000807f00000000000000000000000000000000000000000000000000000000000000006001600160a01b0316639a6fc8f5886040518263ffffffff1660e01b8152600401808269ffffffffffffffffffff16815260200191505060a06040518083038186803b15801561031f57600080fd5b505afa158015610333573d6000803e3d6000fd5b505050506040513d60a081101561034957600080fd5b508051602082015160609092015190945090925090505b60008212156104285761037283610242565b6001830392507f00000000000000000000000000000000000000000000000000000000000000006001600160a01b0316639a6fc8f5846040518263ffffffff1660e01b8152600401808269ffffffffffffffffffff16815260200191505060a06040518083038186803b1580156103e857600080fd5b505afa1580156103fc573d6000803e3d6000fd5b505050506040513d60a081101561041257600080fd5b5060208101516060909101519092509050610360565b919690955090935091505056fea2646970667358221220faf770a51634df2bfd698b71f06eaf9ddb40f2b9ea772a9aed8ff607b15cd2f964736f6c63430007060033",
  "devdoc": {
    "kind": "dev",
    "methods": {
      "getPrice()": {
        "details": "Returns the index price of the token."
      }
    },
    "version": 1
  },
  "userdoc": {
    "kind": "user",
    "methods": {},
    "version": 1
  },
  "storageLayout": {
    "storage": [],
    "types": null
  }
}